:100000000C94DA080C940B090C940B090C940B0952
:100010000C940B090C940B090C940B090C940B0910
:100020000C940B090C940B090C940B090C940B0900
:100030000C940B090C9413670C940B090C940B098A
:100040000C940B090C940B090C940B090C940B09E0
:100050000C940B090C940B090C940B090C94D367AA
:100060000C940B090C949D670C9473670C940B090A
:100070000C940B090C940B090C940B090C940B09B0
:100080000C940B090C940B090C940B090C940B09A0
:100090000C940B090C940B090C940B090C941D681F
:1000A0000C940B090C940B090C940B090C940B0980
:1000B0000C940B090C940B090C940B090C940B0970
:1000C0000C940B090C940B090C940B090C940B0960
:1000D0000C940B090C940B090C940B090C940B0950
:1000E0000C940B09446973706C617920616C7265C2
:1000F00061647920696E697469616C697A65642CE0
:1001000020756E61626C6520746F20736574207653
:10011000616C7565004661696C656420777269740D
:1001200065206A736F6E20746F20737472696E67D6
:1001300000D0BDD0BED179D182D180D0B4D0B5D0DD
:10014000D0B2D0B5D1D0B4D0BED0B6D0B4D18C005E
:100150000000000000D0BBD0B8D0B2D0B5D0BDD127
:100160008C00000000D181D0BDD0B5D0B3D0BED0BE
:10017000BFD0B0D0B4D181D0B8D0BBD18CD0BDD19C
:100180008BD0B920D1D0B3D180D0BED0B7D0B00001
:100190000000000000D0B1D0B5D0B720D0BED181D2
:1001A000D0B0D0B4D0D181D0B5D0B2D0B5D180D07C
:1001B000BDD18BD0D181D0B5D0B2D0B5D180D0BE99
:1001C0002DD0B2D0B2D0BED181D182D0BED187D015
:1001D000BDD1D18ED0B3D0BE2DD0B2D0BED181D1C1
:1001E00082D18ED0B6D0BDD18BD0B9000000000036
:1001F000D18ED0B3D0BE2DD0B7D0B0D0BFD0B0D07C
:10020000B7D0B0D0BFD0B0D0B4D0BDD18BD0D18119
:10021000D0B5D0B2D0B5D180D0BE2DD0B7D0B2D06D
:10022000BED181D0BAD180D0D0BFD0BED0BDD0B5E4
:10023000D0B4D0D0B2D182D0BED180D0BDD0D18107
:10024000D180D0B5D0B4D0B000D187D0B5D182D0D4
:10025000B2D0B5D1D0BFD18FD182D0BDD0B8D1D19D
:1002600081D183D0B1D0B1D0BED1D18FD0BDD0B2E9
:10027000D0D184D0B5D0B2D1D0BCD0B0D180D1D083
:10028000B0D0BFD180D0D0BCD0B0D18F00D0B8D149
:100290008ED0BDD1D0B8D18ED0BBD1D0B0D0B2D05D
:1002A000B3D1D181D0B5D0BDD1D0BED0BAD182D159
:1002B000D0BDD0BED18FD0D0B4D0B5D0BAD05375C8
:1002C0006E646179000000004D6F6E64617900001A
:1002D0000000547565736461790000005765646EB1
:1002E00065736461790054687572736461790000A4
:1002F000467269646179000000005361747572642C
:10030000617900004A616E7561727900000046658E
:1003100062727561727920004D617263680000003D
:100320000000417072696C00000000004D617900AE
:100330000000000000004A756E650000000000002B
:100340004A756C7900000000000041756775737490
:100350000000000053657074656D626572004F6344
:10036000746F6265720000004E6F76656D62657233
:100370000000446563656D6265720000CDCCCC3DC4
:100380000AD7233C17B7D13877CC2B329595E62482
:100390001FB14F0A0000803FCDCCCC3D6F12833A95
:1003A00095BFD6337D1D9026B3CE010C00002041B1
:1003B0000000C84200401C4620BCBE4CCA1B0E5A5E
:1003C000AEC59D7400000000003E5B4F5B3E3E6B7F
:1003D0004F6B3E1C3E7C3E1C183C7E3C181C577DDF
:1003E000571C1C5E7F5E1C00183C1800FFE7C3E72B
:1003F000FF0018241800FFE7DBE7FF30483A060E3D
:100400002629792926407F050507407F05253F5A83
:100410003CE73C5A7F3E1C1C08081C1C3E7F1422F3
:100420007F22145F5F005F5F06097F017F0066899E
:10043000956A606060606094A2FFA29408047E04E4
:100440000810207E201008082A1C08081C2A08080A
:100450001E101010100C1E0C1E0C30383E383006CA
:100460000E3E0E06000000000000005F00000007C6
:10047000000700147F147F14242A7F2A12231308F4
:10048000646236495620500008070300001C2241D0
:10049000000041221C002A1C7F1C2A08083E080874
:1004A0000080703000080808080800006060002024
:1004B000100804023E5149453E00427F4000724907
:1004C0004949462141494D331814127F10274545AB
:1004D00045393C4A494931412111090736494949C1
:1004E00036464949291E000014000000403400002F
:1004F0000008142241141414141400412214080298
:10050000015909063E415D594E7C1211127C7F490A
:100510004949363E414141227F4141413E7F49495F
:1005200049417F090909013E414151737F0808088B
:100530007F00417F41002040413F017F081422415C
:100540007F404040407F021C027F7F0408107F3EB6
:100550004141413E7F090909063E4151215E7F0923
:10056000192946264949493203017F01033F40408A
:10057000403F1F2040201F3F4038403F6314081475
:100580006303047804036159494D43007F414141AD
:100590000204081020004141417F0402010204408E
:1005A00040404040000307080020545478407F2812
:1005B0004444383844444428384444287F38545408
:1005C000541800087E090218A4A49C787F0804042B
:1005D0007800447D40002040403D007F10284400CA
:1005E00000417F40007C047804787C08040478385B
:1005F00044444438FC1824241818242418FC7C088B
:10060000040408485454542404043F44243C404007
:10061000207C1C2040201C3C4030403C44281028BA
:10062000444C9090907C4464544C44000836410003
:100630000000770000004136080002010204023C7D
:100640002623263C1EA1A161123A4040207A38544C
:1006500054555921555579412254547842215554C5
:10066000784020545579400C1E5272123955555518
:1006700059395454545939555454580000457C4103
:100680000002457D420001457C407D1211127DF043
:10069000282528F07C545545002054547C547C0A6D
:1006A000097F4932494949323A4444443A324A4836
:1006B00048303A4141217A3A42402078009DA0A03A
:1006C0007D3D4242423D3D4040403D3C24FF24248C
:1006D000487E4943662B2FFC2F2BFF0929F620C0AB
:1006E000887E090320545479410000447D413048FC
:1006F000484A32384040227A007A0A0A727D0D193F
:10070000317D2629292F28262929292630484D40A0
:1007100020380808080808080808382F10C8ACBA9C
:100720002F102834FA00007B000008142A1422221B
:10073000142A14085500550055AA55AA55AAFF5564
:10074000FF55FF000000FF00101010FF00141414EC
:10075000FF001010FF00FF1010F010F0141414FC34
:10076000001414F700FF0000FF00FF1414F404FC51
:10077000141417101F10101F101F1414141F001032
:100780001010F0000000001F101010101F101010AB
:1007900010F010000000FF101010101010101010BA
:1007A000FF10000000FF140000FF00FF00001F10FA
:1007B000170000FC04F414141710171414F404F4B4
:1007C0000000FF00F714141414141414F700F714A5
:1007D0001414171410101F101F141414F4141010F4
:1007E000F010F000001F101F0000001F1400000098
:1007F000FC140000F010F01010FF10FF141414FF90
:10080000141010101F00000000F010FFFFFFFFFF8A
:10081000F0F0F0F0F0FFFFFF0000000000FFFF0F1E
:100820000F0F0F0F3844443844FC4A4A4A347E02C2
:10083000020606027E027E02635549416338444443
:100840003C04407E201E2006027E020299A5E7A5F8
:10085000991C2A492A1C4C7201724C304A4D4D3069
:100860003048784830BC625A463D3E494949007E8E
:100870000101017E2A2A2A2A2A44445F4444405125
:100880004A444040444A51400000FF0103E080FFD9
:10089000000008086B6B083612362436060F090F65
:1008A00006000018180000001010003040FF010181
:1008B000001F01011E00191D1712003C3C3C3C00AA
:1008C00000000000EF03038002CF0300C130ED04FD
:1008D00064031281E803850078CB05392C003402CB
:1008E000F70120EA020000C00123C10110C5023E49
:1008F00028C701863601483701003A0155B1020088
:1009000018B603088227F20100260101E00F0F311B
:100910002B0C0E084EF1370710030E0900E10F00F3
:100920000E1403110731C148080F0C31360F118026
:1009300029800000002100240027002A002D00301B
:1009400000330001010000040107010A010000203A
:10095000002300260029002C002F00320000010097
:100960000003010601090100000A0B02090C0D0E2B
:100970000807030401000000000000000000000060
:100980000000000000000000000000000000000067
:100990000000001211100000000000000000000024
:1009A0000000000000000000000000000001021034
:1009B0002020080810204010204080020102010879
:1009C0000402010102040810204080804020100829
:1009D0000402018004020180402010080402010882
:1009E00004020101020408102040800102040810E2
:1009F00020408000002200250028002B002E00311E
:100A000000340002010000050108010B0105050585
:100A100005070508080808020202020A0A08080475
:100A200004040401010101010101010303030303A3
:100A3000030303040707070C0C0C0C0C0C0C0C0232
:100A400002020206060606060606060B0B0B0B0B39
:100A50000B0B0B0200000000003E5B4F5B3E3E6B49
:100A60004F6B3E1C3E7C3E1C183C7E3C181C577D48
:100A7000571C1C5E7F5E1C00183C1800FFE7C3E794
:100A8000FF0018241800FFE7DBE7FF30483A060EA6
:100A90002629792926407F050507407F05253F5AED
:100AA0003CE73C5A7F3E1C1C08081C1C3E7F14225D
:100AB0007F22145F5F005F5F06097F017F00668908
:100AC000956A606060606094A2FFA29408047E044E
:100AD0000810207E201008082A1C08081C2A080874
:100AE0001E101010100C1E0C1E0C30383E38300634
:100AF0000E3E0E06000000000000005F0000000730
:100B0000000700147F147F14242A7F2A122313085D
:100B1000646236495620500008070300001C224139
:100B2000000041221C002A1C7F1C2A08083E0808DD
:100B3000008070300008080808080000606000208D
:100B4000100804023E7F417F3E00447E7F40627376
:100B5000594F662263497F36181C127F7F2F6F45DD
:100B60007D393E7F497B320371790F07367F497F9C
:100B700036266F497F3E000014000000403400001C
:100B80000008142241141414141400412214080201
:100B9000015909063E415D594E7C1211127C7F4974
:100BA0004949363E414141227F4141413E7F4949C9
:100BB00049417F090909013E414151737F080808F5
:100BC0007F00417F41002040413F017F08142241C6
:100BD0007F404040407F021C027F7F0408107F3E20
:100BE0004141413E7F090909063E4151215E7F098D
:100BF000192946264949493203017F01033F4040F4
:100C0000403F1F2040201F3F4038403F63140814DE
:100C10006303047804036159494D43007F41414116
:100C20000204081020004141417F040201020440F7
:100C300040404040000307080020545478407F287B
:100C40004444383844444428384444287F38545471
:100C5000541800087E090218A4A49C787F08040494
:100C60007800447D40002040403D007F1028440033
:100C700000417F40007C047804787C0804047838C4
:100C800044444438FC1824241818242418FC7C08F4
:100C9000040408485454542404043F44243C404071
:100CA000207C1C2040201C3C4030403C4428102824
:100CB000444C9090907C4464544C4400083641006D
:100CC0000000770000004136080002010204023CE7
:100CD0002623263C384438000010787C00006C64E1
:100CE0005C000044546C000030287C00005C5464BC
:100CF0000000785474000064140C00006C546C0004
:100D0000005C543C00000004040400FFFFFFFFFFF0
:100D10003E000000003E3E0000003E3E003E003E21
:100D20003E003E3E8080808080C0C0C0C0C0D0D029
:100D3000D0D0D0D8D8D8D8D8DADADADADADBDBDB38
:100D4000DBDB40004000406000400040600070007D
:100D50004060007000787C004000407C007E0040D5
:100D60007C007E007F1C774141414141414141412E
:100D700041417F001C77415D5D4141415D5D5D5DAD
:100D8000415D5D5D5D417F00221C141C2200081C3A
:100D900008000000770000465D555D317C555455D4
:100DA0004408082A0808001408140008142208142B
:100DB0007F4171311F03057F050322147F552202F5
:100DC000557D0502060909060044445F44441C148D
:100DD0001C227F203E613E2020503F020C807C2060
:100DE0003C40443C047C4400000800003855545505
:100DF000187E08107F010810080402140822140845
:100E00000E060A102020100A060E383028040202AE
:100E1000042830387E1111117E7F494949317F49BC
:100E20004949367F01010103C07F417FC07F4949A5
:100E3000494177087F087741494949367F100804BE
:100E40007F7C2112097C7F08142241403E01017FF2
:100E50007F020C027F7F0808087F3E4141413E7FB0
:100E60000101017F7F090909063E4141412201013B
:100E70007F0101074848483F0E117F110E63140897
:100E800014637F40407FC0070808087F7F407F4091
:100E90007F7F407F40FF017F4848307F4848307F58
:100EA0007F48484830224149493E7F083E413E46FE
:100EB0002919097F20545454783C4A4A49317C54BA
:100EC0005454287C0404040CC078447CC038545426
:100ED00054186C107C106C44545454287C20100816
:100EE0007C7C4026107C7C10102844403804047C14
:100EF0007C0810087C7C1010107C38444444387CFA
:100F00000404047C7C141414083844444448040445
:100F10007C04040C5050503C1824FC241844281025
:100F200028447C40407CC00C1010107C7C407C40ED
:100F30007C7C407C40FC047C5050207C5050207CC9
:100F40007C5050502028445454387C103844384841
:100F50003414147C0000000101410008014800091C
:100F60000149000000000000000000000000000037
:100F70000000000000000000000000000000000071
:100F80000000000000000000000000000000000061
:100F900000000000000000860402254E256D5B6401
:100FA00046590400180042007F402540400001409F
:100FB00080804800483F0806015B014F0166016DD3
:100FC000017D0007017F016F2400440018000148E3
:100FD0004340A123053B0177250F0039240F0079F9
:100FE0000071013D01762409001E187000380A3690
:100FF0001236003F0173103F1173030D2401003EB0
:10100000483050365A00016E480900391200000F6E
:10101000500000080200205810780058410E405837
:101020002840090E2070200044103C00003021545C
:101030002050015C02700906005011080078001C65
:10104000401050145A00050E404842492400190926
:101050004940FFFF000100020004000800100020CA
:101060000040008001000200040008001000200081
:1010700040008000000000000000000000000000B0
:101080000000000000000000000000000000000060
:101090000000000000000000000000000000000050
:1010A00000000000007900000000000000000000C7
:1010B00000000000016300000000000000000000CC
:1010C0000000000040580000000000000000000088
:1010D0000000000049061079250F003109560079FB
:1010E0007E00184948364836187048060A36017698
:1010F000003F00370173003924014A0025635A007C
:1011000024380306243E0566250D207E017C4240DE
:10111000197641672058035D097D2100210F405851
:101120007E00184960106010187060000A36017661
:10113000015C01540173015821404A0025635A00A3
:1011400020180306201C0566250D207E017C4240E8
:101150001976416700003863EF483874635034747F
:10116000EF74633641A042A1E045A3A4A5A64BA716
:101170004D484FA8504354A9AA58E1ABACE2ADAEDC
:1011800062AFB0B161B2B3B4E365B6B7B8B9BABBD8
:10119000BCBD6FBE7063BF79E478E5C0C1E6C2C371
:1011A000C4C5C6C71F1C1F1E1F1E1F1F1E1F1E1FBC
:1011B0004169CE7311241FBECFEFD1E2DEBFCDBF98
:1011C00000E00CBF25E2A2EABEE101C01D92AE38EC
:1011D000B207E1F71EE1A0E0B2E0ECECFCEF00E0CA
:1011E0000BBF02C007900D92A23AB107D9F718E0E1
:1011F000C9EDD8E000E006C021970109802FFE016B
:101200000E945477C83DD10780E00807A9F70E94E3
:101210006D6A0C94557E0C94000091E09093E92245
:1012200080930B231092EA2210920C230895CF93FF
:10123000DF93E091E522F091E62240815181DA01CD
:1012400090E060E0292F30E0F901EB55FD4D708111
:1012500077FF16C09E5FEFEFE60FE770F0E0EE0F4E
:10126000FF1FE40FF51FE901CD55DD4D78812C55A9
:101270003D4DE901288130E03068372B31832083F0
:10128000E92FF0E0EB55FD4D208130E0322F222791
:10129000E1E0E90FF0E0EB55FD4D708177FD30683E
:1012A000272B2D933D936F5F9E5F8613CBCFDF91EE
:1012B000CF910895DC0115961C92159714961C92F7
:1012C000149713961C9213971C9281E011968C939D
:1012D000119711968C911197282F2150330BF901FA
:1012E000EC55FE4EE491823009F4EF5FE11102C04B
:1012F0008F5FECCF81E012968C930895CF93DF93AC
:10130000E1E0E80F873009F4EFE1A82FB0E0AB553A
:10131000BD4D1C92F0E0EB55FD4D808188708083BF
:10132000C62FD0E0CD5FDC4F8881282F22952F700B
:101330009C91922B9C938F709081892B8083DF915D
:10134000CF9108958230910538F0880F991F880F4A
:10135000991F05970197F1F70895CF93DF93A5EAB9
:10136000B2E290E020E0E92FF0E0EE0FFF1FEA5537
:10137000FD4D3081303831F49F5FED013A91306896
:1013800038831082E92FF0E0EE0FFF1FEA55FD4D84
:1013900030813D9310822F5F9F5F8213E4CFDF91F6
:1013A000CF910895FB01A485B585ED91FC9111972E
:1013B0000190F081E02D682FCD01199581E090E03A
:1013C0000895089508959F92AF92BF92CF92DF92B1
:1013D000EF92FF920F931F93CF93DF93EC016B017A
:1013E0008885998511E0892B09F010E8F601A08025
:1013F0008A2D8123992493948111912C2C813D81F4
:101400004E815F8160E271EA87E090E00E9416778A
:10141000022FB12CE22EF12C002311F0C70192DF34
:101420008A85877F09F04EC08D858F3F89F09A2D80
:10143000912381E009F480E0891551F0EF85F88966
:101440008F899923C9F19081892B80839924939462
:10145000E989FA898081998D892B8083002311F095
:10146000C70170DF8E858F3F39F0EB89FC89808161
:10147000988D892309F0B12AE989FA899081898DAB
:101480008095892380838E858F3F11F0F601B0828D
:1014900088859985892B09F043C0110F1111BCCFA4
:1014A000DF91CF911F910F91FF90EF90DF90CF9040
:1014B000BF90AF909F9008959081809589238083FD
:1014C000912CC6CFE989FA898081998D892B8083F7
:1014D000002311F0C70136DF8D858F3F49F0EF857E
:1014E000F8898F899A2D9123B9F09081892B808377
:1014F000E989FA899081898D8095892380838E85F9
:101500008F3F09F4C0CFEB89FC898081988D8923B6
:1015100009F4B9CFB12AB7CF908180958923E7CF5D
:101520001695BCCFFC0120812EBD0DB407FEFDCF6A
:101530002EB5FC0120830895FC01248135816217BA
:10154000730720F480819181009729F410925F1F26
:101550008FE59FE10895860F971F08950895DB0199
:1015600014964D915C9115976D917C91DC01ED91F4
:10157000FC910280F381E02D1994AF92BF92CF923B
:10158000DF92EF92FF920F931F93CF93DF936C0143
:101590007B018B01040F151FEB015E01AE18BF0824
:1015A000C017D10759F06991D601ED91FC910190D6
:1015B000F081E02DC6011995892B79F7C501DF91DE
:1015C000CF911F910F91FF90EF90DF90CF90BF9040
:1015D000AF900895FC0151A542A5252F30E0842F3E
:1015E00090E0821B930B541710F0CF96089501974B
:1015F0000895FC0197A180A5981761F0A0A5AE0FF2
:10160000BF2FB11D9B968C9190A59F5F9F7390A754
:1016100090E008958FEF9FEF0895FC0197A180A5BA
:10162000981731F080A5E80FF11D83A590E008958B
:101630008FEF9FEF0895FC0197A120A5892F90E0DF
:10164000805C9F4F821B91098F739927089589E5CC
:1016500093E2F1DF21E0892B09F420E0822F089545
:10166000FC01A2A5A80FB92FB11DA559BF4F2C9100
:1016700082A590E001968F73992782A7A4A1B5A1B6
:101680002C93A68DB78D8C91837080648C9391A5DB
:1016900082A5981306C000A0F1A1E02D80818F7D66
:1016A00080830895EF92FF920F931F93CF93DF9360
:1016B000EC0181E08EA399A58AA598131AC0EE8D3E
:1016C000FF8D808185FF15C09FB7F894ECA1FDA127
:1016D0006083EE8DFF8D80818370806480839FBFE7
:1016E00081E090E0DF91CF911F910F91FF90EF90FB
:1016F0000895F62E09A510E00F5F1F4F0F731127F5
:10170000E02E8AA58E110BC00FB607FCFACFEE8D26
:10171000FF8D808185FFF5CFCE01A2DFF2CFE9A555
:10172000EC0FFD2FF11DE559FF4FF0829FB7F894A4
:1017300009A7E8A1F9A180818062D0CF0F931F9300
:10174000CF93DF938C01D0E0C0E0F801EC0FFD1FD8
:101750006491662339F089E593E2A4DF892B11F0C7
:101760002196F3CFCE01DF91CF911F910F91089574
:10177000CF93DF93EC018EA18823B1F0A8A1B9A18A
:10178000EE8DFF8D8C9185FD03C0808186FD0CC0A0
:101790000FB607FCF7CF8C9185FFF2CF808185FFD4
:1017A000EDCFCE015DDFEACFDF91CF91089580E0EC
:1017B00090E0892B21F04BDF81110E94000080E036
:1017C00090E0892B49F080E090E0892B29F00E947D
:1017D000000081110E94000080E090E0892B49F018
:1017E00080E090E0892B29F00E94000081110E9486
:1017F000000080E090E0892B49F080E090E0892BA8
:1018000029F00E94000081110C940000089581507D
:10181000823108F05AC0E82FF0E08827ED5EF34FE0
:101820008F4F0C945477330C370C250C2B0C2F0C4A
:10183000650C3A0C400C440C4A0C4E0C520C580CE3
:101840005C0C650C600C660C6A0C809180008F77D4
:10185000809380000895809180008F7DF9CF8091E2
:101860008000877FF5CF84B58F7784BD089584B5D8
:101870008F7DFBCF8091B0008F778093B00008956B
:101880008091B0008F7DF9CF809190008F77809309
:1018900090000895809190008F7DF9CF8091900005
:1018A000877FF5CF8091A0008F778093A000089567
:1018B0008091A0008F7DF9CF8091A000877FF5CF28
:1018C000809120018F7780932001089580912001DD
:1018D0008F7DF9CF80912001877FF5CFCF93DF9364
:1018E000282F30E0F901E959F64F8491F901E355C9
:1018F000F64FD491F901E35FF54FC491CC2399F0F1
:10190000811185DFEC2FF0E0EE0FFF1FE35BF64F58
:10191000A591B491EC91ED2381E090E009F480E091
:10192000DF91CF91089580E090E0FACF1F93CF939D
:10193000DF93282F30E0F901E959F64F8491F9013E
:10194000E355F64FD491F901E35FF54FC491CC23F1
:10195000A1F0162F81115BDFEC2FF0E0EE0FFF1FDF
:10196000ED50F64FA591B4918FB7F894EC91111109
:1019700008C0D095DE23DC938FBFDF91CF911F91FC
:101980000895DE2BF8CF9091030289130DC0E3E593
:10199000FAE0E4919FEF90930302E230D9F030F443
:1019A000EE2379F0E13081F060E0C0CFE43049F11E
:1019B00010F1E530C9F7909173009D7F909373000B
:1019C000F3CF10926E00F0CF90916F009D7F9093B7
:1019D0006F00EACF909170009D7F9093700091E02E
:1019E0009093B0009091B100987F94609093B10073
:1019F0001092B300D9CF909171009D7F90937100A8
:101A0000D3CF909172009D7F90937200CDCFCF93F2
:101A1000DF9390E0FC01E355F64F2491835F954FEF
:101A2000FC0184918823C9F090E0880F991FFC0184
:101A3000ED5CF64FA591B491FC01ED50F64FC591C8
:101A4000D49161110DC09FB7F8948C912095822399
:101A50008C938881282328839FBFDF91CF9108959D
:101A6000623051F49FB7F8943C91822F8095832384
:101A70008C93E8812E2BEFCF8FB7F894EC912E2B1F
:101A80002C938FBFEACF3FB7F8948091121F9091AB
:101A9000131FA091141FB091151F26B5A89B05C058
:101AA0002F3F19F00196A11DB11D3FBFBA2FA92FDD
:101AB000982F8827BC01CD01620F711D811D911DDA
:101AC00042E0660F771F881F991F4A95D1F7089546
:101AD0008F929F92AF92BF92CF92DF92EF92FF923E
:101AE0006B017C01D0DF4B015C01C114D104E10426
:101AF000F104B1F0C8DF681979098A099B09683EC9
:101B000073408105910588F321E0C21AD108E108EC
:101B1000F10888EE880E83E0981EA11CB11CE5CF69
:101B2000FF90EF90DF90CF90BF90AF909F908F90FD
:101B300008952FB7F89460910E1F70910F1F809138
:101B4000101F9091111F2FBF08954F925F926F92B7
:101B50007F928F929F92AF92BF92CF92DF92EF923D
:101B6000FF921F93CF93DF93FC01D62F2091851F07
:101B700016E0222309F48AC09F012F5F3F4F408166
:101B80004A33F1F430938C1F20938B1F2181C4E0E2
:101B9000243611F5339630E020E06AE0819190ED33
:101BA000980F9A3078F4629FA001639F500D112422
:101BB000082E000C990BC0979C01240F351FEECF07
:101BC000F901DACF2115310511F424E030E0C22FFC
:101BD000F0938C1FE0938B1FE0918B1FF0918C1F73
:101BE000808116E08F3691F48281082E000C990BCB
:101BF0009C0120533109C397059710F026E030E08F
:101C0000122F3496F0938C1FE0938B1FE0918B1F63
:101C1000F0918C1F80812FE330E08236D1F4329630
:101C200030E020E09AE0819140ED480F4A3068F4BE
:101C3000929FA001939F500D1124282F880F330BE2
:101C400020533109240F351FEECFF0938C1FE09302
:101C50008B1F032E000C440B550B60E67AEE80E0E0
:101C600090E00E943877B2E0220F331F441F551FC7
:101C7000BA95D1F72093871F3093881F4093891F0F
:101C800050938A1FC093861F1092851F52DFC09009
:101C90002625D0902725E0902825F0902925C616E6
:101CA000D706E806F90608F0B6C0E0908B1FF09062
:101CB0008C1FF7018081883709F4ADC030E020E047
:101CC0004AE0F701C1916F0180ED8C0F8A3070F40A
:101CD000429FC001439F900D11242C2FCC0F330B3A
:101CE00020533109280F391F7F01EBCF6091871FE7
:101CF0007091881F8091891F90918A1F4091861F43
:101D00002115310509F097C0242F30E050E040E064
:101D10000E94387749015A01C156C73008F090C077
:101D2000EC2FF0E0E450FD4FC081D0928C1FC092A8
:101D30008B1FF7018181833241F4CF5FF2E0EF0E18
:101D4000F11CF0928C1FE0928B1FE0908B1FF090A3
:101D50008C1FF70180818E3299F4C501B40122E015
:101D600030E040E050E00E943877820E931EA41EBF
:101D7000B51EFFEFEF1AFF0AF0928C1FE0928B1F47
:101D8000E0918B1FF0918C1F808180538A3030F45A
:101D90003196F0938C1FE0938B1F182FE0918B1FCF
:101DA000F0918C1F80818C3229F43196F0938C1F36
:101DB000E0938B1FCC2309F4DFC2212F2450330B77
:101DC000C9012CE0289FF001299FF00D1124EC0F90
:101DD000F11DEE0FFF1FE656FD4FC080D1808091B0
:101DE00003028F3079F18F3F09F4E0C0C501B401DF
:101DF0006FDE8FE0C8DD6D2F8FE098DD9ADE860EF6
:101E0000971EA81EB91E8092222590922325A0928B
:101E10002425B0922525DF91CF911F91FF90EF905F
:101E2000DF90CF90BF90AF909F908F907F906F90FA
:101E30005F904F900895032E000C440B550B68CF14
:101E4000C0E073CFE3E5FAE0C491C7FDCFCF61E016
:101E50008FE0DDDDCC2319F0C23009F0D8C1F12CC0
:101E6000E12C60E072E18AE790E0A70196010E9410
:101E7000387729013A01BA01A90141505109610994
:101E800071094F3F51056105710509F00CF4A4C1BA
:101E900060E472E48FE090E0A70196010E94387739
:101EA000BA01A9014150510961097109C23009F013
:101EB00050C182E04F3F51056105710509F00CF4F6
:101EC00063C060E970ED83E090E0A70196010E9495
:101ED0003877BA01A901415051096109710983E0BC
:101EE0004F3F51056105710509F00CF44DC068E4E0
:101EF00078EE81E090E0A70196010E943877BA0160
:101F0000A901415051096109710984E04F3F510510
:101F100061057105C9F1C4F164E274EF80E090E0FD
:101F2000A70196010E943877BA01A90141505109D1
:101F30006109710985E04F3F51056105710521F186
:101F400018F162E17AE780E090E0A70196010E9433
:101F50003877BA01A901415051096109710986E038
:101F60004F3F51056105710579F070F0B301A20191
:101F70009AE075956795579547959A95D1F7415091
:101F800051096109710987E09091B100987F892B0F
:101F90008093B100C23009F4DCC10CF0D3C1CC2372
:101FA00009F421C1C13009F021CF5FC18FE08093D6
:101FB0000302E3E5FAE0C4918C2FCF3F09F416CF7A
:101FC000C23009F467C058F4CC2371F1C13009F470
:101FD00043C087FD0BCF61E08FE019DD3DCFC430FA
:101FE00009F499C008F478C0C53099F7109220011F
:101FF00010922101809121018860809321018091BC
:102000002101816080932101ECE1FAE0E491F0E0AC
:10201000EE0FFF1FED50F64F85919491ECEBF9E038
:10202000E491E093651F13CF14BC15BC84B58260A6
:1020300084BD85B5816085BDECE1FAE0E491F0E016
:10204000EE0FFF1FED50F64F85919491ECEBF9E008
:10205000E491E0936C1FFBCE1092800010928100FF
:1020600080918100886080938100809181008160EF
:1020700080938100ECE1FAE0E491F0E0EE0FFF1FC5
:10208000ED50F64F85919491ECEBF9E0E491E093FB
:102090006B1FDDCE1092B0001092B1008091B000A5
:1020A00082608093B0008091B10081608093B10024
:1020B000ECE1FAE0E491F0E0EE0FFF1FED50F64F97
:1020C0008591949190936A1F8093691FECEBF9E0DE
:1020D000E491E093681FBBCE1092900010929100A3
:1020E000809191008860809391008091910081603F
:1020F00080939100ECE1FAE0E491F0E0EE0FFF1F35
:10210000ED50F64F85919491ECEBF9E0E491E0937A
:10211000671FC3E09CCE1092A0001092A100809196
:10212000A10088608093A1008091A10081608093CC
:10213000A100ECE1FAE0E491F0E0EE0FFF1FED50BA
:10214000F64F85919491ECEBF9E0E491E093661FF2
:102150007ECE4F3F51056105710509F00CF455C065
:1021600068E478EE81E090E0A70196010E9438775C
:10217000BA01A901415051096109710984E0C111F5
:10218000DACE83E04F3F51056105710541F13CF125
:1021900062E17AE780E090E0A70196010E9438773B
:1021A000BA01A901415051096109710984E04F3F09
:1021B00051056105710599F090F0B301A2018AE023
:1021C00075956795579547958A95D1F7415051096F
:1021D0006109710985E003C081E0C111D5CE95B5D3
:1021E000987F892B85BD47BD8FEF9FEFDC018093E2
:1021F000811F9093821FA093831FB093841F8091AF
:102200006E00826080936E00F1CD82E0E6CFF12C0B
:10221000E12C60E072E18AE790E0A70196010E945C
:102220003877BA01A901415051096109710991E05A
:102230004115510531E0630771057CF068E478EEE3
:1022400081E090E0A70196010E943877BA01A901C8
:10225000415051096109710993E0C130D9F480916D
:102260008100887F892B809381005093890040935F
:1022700088008FEF9FEFDC0180937D1F90937E1F7E
:10228000A0937F1FB093801F80916F008260809326
:102290006F00ACCDC330D9F480919100887F892B39
:1022A0008093910050939900409398008FEF9FEF97
:1022B000DC018093751F9093761FA093771FB093D6
:1022C000781F809171008260809371008FCDC4303F
:1022D000D9F48091A100887F892B8093A10050932D
:1022E000A9004093A8008FEF9FEFDC018093711F3E
:1022F0009093721FA093731FB093741F809172000C
:1023000082608093720072CDC53009F043CE809117
:102310002101887F892B80932101509329014093CB
:1023200028018FEF9FEFDC0180936D1F90936E1F4C
:10233000A0936F1FB093701F809173008260809391
:10234000730054CDC43059F20CF4ACCFC53029F32E
:102350004DCD4093B3008FEF9FEFDC018093791F49
:1023600090937A1FA0937B1FB0937C1F8091700085
:102370008260809370003ACDDCDB860E971EA81E2B
:10238000B91E8092262590922725A0922825B092EA
:10239000292541CDCF93DF93C0910724D091082404
:1023A00062E08D8134DBC5DB605D77408109910996
:1023B00069877A878B879C8787E38A8BDF91CF91A8
:1023C000089586FF15C0982F9F71492F50E024E093
:1023D000559547952A95E1F7242F220F220F342F88
:1023E000321B232F220F290F85FD245F822F089592
:1023F000282F30E094E0359527959A95E1F7922FB4
:10240000990F990F291B220F280FF0CFEF92FF92FF
:102410000F931F93CF93DF93EC0169813881432F92
:1024200050E02A81822F90E0E4EAF1E121E02617D2
:1024300030F47491870F911D2F5F3196F8CF633080
:1024400018F0337009F401966DE671E0469F900133
:10245000479F300D569F300D1124215031094D5F9B
:102460005F4F5695479556954795240F351F280F72
:10247000391FA8E1B0E00E9471752B817B018C01AE
:10248000E20EF11C011D111DA8019701ACE3B0E0A3
:102490000E9467752C817B018C01E20EF11C011DED
:1024A000111DA80197010E9467752D81620F711D92
:1024B000811D911DDF91CF911F910F91FF90EF90A2
:1024C0000895CF92DF92FF920F931F93CF93DF93E4
:1024D000EC01162F042FF12C8BE4C82ED12C61E0D7
:1024E000898195DA60E08A8121DAC6010197F1F7E6
:1024F0000530E1F0083001F113FB662760F9043084
:10250000C1F0C6010197F1F761E08A810FDAC601D7
:102510000197F1F7F394110F0F11E1CFDF91CF91F4
:102520001F910F91FF90DF90CF90089514FB6627C5
:1025300060F98981FBD9E5CF612F661F6627661F89
:10254000F8CF1F93CF93DF93EC01162F60E08881C3
:10255000EDD944E068E0CE01B4DF48E0612FCE0160
:10256000B0DF61E08881DF91CF911F91DFC9CF9308
:10257000DF93EC0160E08881D9D960E08981D6D908
:1025800061E08881D3D961E08981DF91CF91CEC9A3
:10259000CF93DF93EC0161E08881C8D961E0898144
:1025A000C5D960E08981C2D960E08881DF91CF918F
:1025B000BDC9EF92FF920F931F93CF93DF93EC016E
:1025C000062F18E060E08881B1D9E02EF12C61E09F
:1025D00000FF60E08981AAD9F594E7940E2D61E0AF
:1025E0008881A4D9115071F760E088819FD961E09A
:1025F00089819CD961E0888199D960E0898107DA75
:1026000083EC90E00197F1F7898168D97C01811111
:1026100006C061E08981FBD960E0898187D903EC3C
:1026200010E0C8010197F1F761E08981F0D9C80194
:102630000197F1F7C7019927DF91CF911F910F9172
:10264000FF90EF9008950F931F93CF93DF93EC01CA
:10265000162F042F9DDF64E4CE01ABDFCE0187DFB0
:10266000CE0196DF612F606CCE01A3DF602FCE011B
:10267000A0DFCE017CDFCE018BDF6A81CE0199DF46
:10268000CE01DF91CF911F910F9171CF0F93FC017C
:10269000A489B5896A9FF0016B9FF00D11244E0F3C
:1026A0005F2F511DDC015696ED91FC91E40FF51F53
:1026B0008081222321F0082B00830F91089500953B
:1026C0000823FACF0F931F93CF93DF938C01EB0175
:1026D000219748F061E0F801828128D960E0F80193
:1026E000828124D9F5CFDF91CF911F910F91089569
:1026F0001F93CF93DF93EC01162F8B81662359F044
:1027000060E01F3F51F412D96A8970E0CE01DF9179
:10271000CF911F91D7CF61E0F6CF08D961E070E08B
:10272000CE01D0DF61E08B8101D9812F8150990BDF
:10273000BC01ECCFCF93DF93EC01DADF60E0CE0198
:10274000DF91CF91D5CF7F928F929F92AF92BF9220
:10275000CF92DF92EF92FF920F931F93CF93DF936D
:102760007C01CB016A01122FD70118962C91622FA0
:1027700070E00E940377FB019C01D7011796CC9172
:102780006C2F70E0C6010E9403776F01E894C0F8D7
:10279000660F771FC60ED71ECE0EDF1E0A96C69591
:1027A000C695C695C20FD32FD11D21979C0153E02A
:1027B000359527955A95E1F7C20FD31F8770992752
:1027C00020E830E0590102C0B594A7948A95E2F759
:1027D0007A2CB12FB1709B2E0A2D2B2FAE01B60192
:1027E000C70154DFC230D1057CF4E2E0EA1560F4A1
:1027F000D70154964D915C91425051094C0F5D1F89
:10280000292DB601C70142DFAA24A394B12C882444
:102810008394912CF70181858A151B04A1F09CF00B
:102820008389C80FD11D94010A2C01C0220F0A947C
:10283000EAF72123072DAE01B601C70127DFFFEF1D
:10284000AF1ABF0AE7CFDF91CF911F910F91FF9091
:10285000EF90DF90CF90BF90AF909F908F907F9040
:102860000895FF920F931F93CF93DF938C01C1E0E4
:10287000D0E0F80182898C171D06ECF06C2FC8019E
:1028800059DF6C2FC80156DF6C2FC80153DF6C2F46
:10289000C80150DF6C2FC8012BDFF12CF8018489AF
:1028A0009589F816190628F460E0C80121DFF39431
:1028B000F5CF2196DECFDF91CF911F910F91FF9041
:1028C0000895FC01A3A9B4A98C9190AD89238C93A0
:1028D000A3A9B4A98C9197A9892B8C9308950F93E0
:1028E0001F93CF93DF93EC018B01FC01ED5BFF4F56
:1028F000808181110DC01EBD0DB407FEFDCF0EBD40
:102900000DB407FEFDCFDF91CF911F910F91089578
:102910008130E9F480E1EFA5F8A9908117FF14C098
:102920002BA9922B9083E9A9FAA990812DA9922B2A
:102930009083E9A9FAA990812EA992239083000F90
:10294000111F815041F7DFCF2CA99223EBCFEDA5CA
:10295000FEA51083CE01B5DFEDA5FEA50083CE0157
:10296000DF91CF911F910F91ACCFFC01DC01AD5BEA
:10297000BF4F8C91811105C06EBD0DB407FEFDCF18
:1029800008958130E1F488E0A7A5B0A99C9167FF84
:1029900013C023A9922B9C93A1A9B2A99C9125A90C
:1029A000922B9C93660FA1A9B2A99C9126A9922370
:1029B0009C93815049F7089524A99223ECCFA5A5B3
:1029C000B6A56C93CF017DCFCF93DF93EC01EBA540
:1029D000FCA58081DE01AE5BBF4F9C918923808383
:1029E000CE01C3DFEBA5FCA58081CF5BDF4F9881D3
:1029F000892B8083DF91CF910895AF92BF92CF92C0
:102A0000DF92EF92FF920F931F93CF93DF93EC012E
:102A10005B016A01215031097901E60EF71E015070
:102A20001109040F151F6AE2CFDFB501CE0157DF90
:102A3000B701CE0154DF6BE2CE01C6DFB601CE0195
:102A40004EDFB801CE014BDF6CE2CE01DF91CF91BA
:102A50001F910F91FF90EF90DF90CF90BF90AF90BC
:102A6000B3CF1F93CF93DF93EC01162FE881F98149
:102A70000284F385E02D1995FE01112379F0E55BC1
:102A8000FF4F6081CE01A0DFE881F9810688F789D8
:102A9000E02DCE01DF91CF911F911994E45BFF4FA0
:102AA000F0CFAF92BF92CF92DF92EF92FF920F934F
:102AB0001F93CF93DF93EC0177FD37C08E899F89F9
:102AC0006817790794F557FD30C0888D998D4817A0
:102AD00059075CF569017A015B01E881F98102849B
:102AE000F385E02DCE011995E881F98102A4F3A5C3
:102AF000E02D01E010E021E030E0A701B501CE01BA
:102B00001995B601CE01EBDEE881F9810688F789D7
:102B1000E02DCE01DF91CF911F910F91FF90EF90AB
:102B2000DF90CF90BF90AF901994DF91CF911F911C
:102B30000F91FF90EF90DF90CF90BF90AF900895EE
:102B40008F929F92AF92BF92CF92DF92EF92FF92BD
:102B50000F931F93CF93DF93EC0149015701E88155
:102B6000F98102A4F3A5E02D19959401D8010E94E2
:102B70005C776B017C01C114D104E104F10409F418
:102B800090C0FE01ED5BFF4F8081811115C081E097
:102B9000C81AD108E108F1088FEFC816D806E80670
:102BA000F80609F47EC0BEBC0DB407FEFDCFAEBC76
:102BB0000DB407FEFDCFEBCF813009F045C081E0B9
:102BC000C81AD108E108F1088FEFC816D806E80640
:102BD000F80609F466C09B2D88E0EFA5F8A92081CE
:102BE00097FF2CC03BA9232B2083E9A9FAA92081B8
:102BF0003DA9232B2083E9A9FAA920813EA92323FB
:102C00002083990F815049F79A2D88E0EFA5F8A904
:102C1000208197FF16C03BA9232B2083E9A9FAA99D
:102C200020813DA9232B2083E9A9FAA920813EA96F
:102C300023232083990F815049F7C1CF3CA9232337
:102C4000D3CF3CA92323E9CFBA1015C0CC0CDD1C8F
:102C5000EE1CFF1CEDA5FEA5B08281E0C81AD108CC
:102C6000E108F1088FEFC816D806E806F806C9F0A3
:102C7000CE0127DEF2CF81E0C81AD108E108F108C1
:102C80008FEFC816D806E806F80659F0EDA5FEA5A0
:102C9000B082CE0116DEEDA5FEA5A082CE0111DE2A
:102CA000EACFDF91CF911F910F91FF90EF90DF90CE
:102CB000CF90BF90AF909F908F9008958F929F92EA
:102CC000AF92BF92CF92DF92EF92FF920F931F933A
:102CD000CF93DF935C014B016A01E90177FD51C09D
:102CE000DC0156968D919C91681779070CF049C0CC
:102CF000209709F446C037FF07C0C9010196C80EE6
:102D0000D91ED195C195D109F501808D918DC81637
:102D1000D906BCF5A6014C0F5D1F9A01215031095F
:102D200037FD2FC0D7FE03C0EA01D12CC12C2817D4
:102D300039071CF0EC01CC19DD09D501ED91FC91AE
:102D40000284F385E02DC501199578018E0121E0FB
:102D500030E0A601B401C501F3DED501ED91FC918F
:102D60000688F789E02DC501DF91CF911F910F9162
:102D7000FF90EF90DF90CF90BF90AF909F908F909B
:102D80001994DF91CF911F910F91FF90EF90DF90F9
:102D9000CF90BF90AF909F908F9008958F929F9209
:102DA000AF92BF92CF92DF92EF92FF920F931F9359
:102DB000CF93DF935C016B014A01E90157FD51C0DC
:102DC000DC0158968D919C91481759070CF049C029
:102DD000209709F446C037FF07C0C9010196C80E05
:102DE000D91ED195C195D109F50186899789C81653
:102DF000D906BCF5A6014C0F5D1F9A01215031097F
:102E000037FD2FC0D7FE03C0EA01D12CC12C2817F3
:102E100039071CF0EC01CC19DD09D501ED91FC91CD
:102E20000284F385E02DC5011995780101E010E0D9
:102E30009E01A401B601C50183DED501ED91FC918F
:102E40000688F789E02DC501DF91CF911F910F9181
:102E5000FF90EF90DF90CF90BF90AF909F908F90BA
:102E60001994DF91CF911F910F91FF90EF90DF9018
:102E7000CF90BF90AF909F908F9008958F929F9228
:102E8000AF92BF92CF92DF92EF92FF920F931F9378
:102E9000CF93DF934C016B015A01E901209709F4AC
:102EA0006BC00115110509F467C037FF07C0C901E0
:102EB0000196C80ED91ED195C195D109F401A689F4
:102EC000B789CA16DB060CF057C017FF07C0C80148
:102ED0000196A80EB91E119501951109F401808D76
:102EE000918DA816B9060CF047C0F601EC0FFD1F36
:102EF000AF014150510957FD3FC0B501600F711F2F
:102F00009B012150310937FD37C0D7FE03C0EF01C7
:102F1000D12CC12CB7FE03C08B01B12CA12C4A17B8
:102F20005B071CF0ED01CC19DD09281739071CF0EF
:102F30008C010A191B09D401ED91FC910284F385DF
:102F4000E02DC40119959E01A501B601C401F8DD6B
:102F5000D401ED91FC910688F789E02DC401DF9141
:102F6000CF911F910F91FF90EF90DF90CF90BF9086
:102F7000AF909F908F901994DF91CF911F910F91F7
:102F8000FF90EF90DF90CF90BF90AF909F908F9089
:102F90000895EF92FF920F931F93CF93DF9377FDE6
:102FA00031C0DC015696ED91FC916E177F0754F508
:102FB0002115310539F137FF07C0F90131964E0F60
:102FC0005F1F319521953109DC015896ED91FC91F7
:102FD0004E175F07BCF4EA01C20FD31FDE01119741
:102FE000B7FD10C057FF03C09E0150E040E0AE1790
:102FF000BF071CF09F01241B350B7801890121E0DC
:1030000030E09EDDDF91CF911F910F91FF90EF9007
:103010000895EF92FF920F931F93CF93DF9357FD85
:1030200030C0DC015896ED91FC914E175F074CF5CE
:103030002115310531F137FF07C0F90131966E0FC7
:103040007F1F319521953109DC015696ED91FC9158
:103050006E177F07B4F4EB01C20FD31FDE01119787
:10306000B7FD0FC077FF03C09E0170E060E0AE17B0
:10307000BF071CF09F01261B370B780101E010E011
:103080005FDDDF91CF911F910F91FF90EF90089539
:103090008F929F92AF92BF92CF92DF92EF92FF9268
:1030A0000F931F93CF93DF9347012115310509F447
:1030B0004AC00115110509F446C037FF07C0F901E0
:1030C00031966E0F7F1F319521953109DC0156969F
:1030D000AD90BC906A157B05B4F517FF07C0F801E9
:1030E00031964E0F5F1F119501951109DC0158961D
:1030F000ED91FC914E175F0734F56B01C20ED31EA4
:10310000E6012197D7FD1FC07A01E00EF11ED7011D
:103110001197B7FD18C077FF03C0960170E060E01B
:1031200057FF03C0870150E040E0CA15DB051CF0E3
:103130009501261B370BAE17BF071CF08F01041B30
:10314000150B7401FDDCDF91CF911F910F91FF9062
:10315000EF90DF90CF90BF90AF909F908F900895A9
:10316000EF92FF920F931F93CF93DF93EC0177FDC4
:1031700021C08E899F8968177907E4F457FD1AC02A
:10318000888D998D48175907ACF47901E881F98148
:1031900002A4F3A5E02D01E010E021E030E0CE0133
:1031A0001995B701CE01DF91CF911F910F91FF903B
:1031B000EF9095CBDF91CF911F910F91FF90EF9002
:1031C00008950895FC01637064A38289938924891A
:1031D0003589613039F0633029F0978B868B318FD8
:1031E000208F0895378B268B918F808F08952F9293
:1031F0003F924F925F926F927F928F929F92AF9287
:10320000BF92CF92DF92EF92FF920F931F93CF93D3
:10321000DF93CDB7DEB76A970FB6F894DEBF0FBE67
:10322000CDBF9A8F898F7A8369834A01D22E1887FE
:103230000F833701BC2CDC0197962D913C91989718
:103240002115310509F015C156968D919C9157971E
:10325000681779070CF0D7C158968D919C91481743
:1032600059070CF0D0C14C2C512CB6E0CB9E600D10
:10327000711D11247C876B87161617060CF0C3C1CD
:10328000EA2DF0E0FA87E98793E0EE0FFF1F9A95A9
:10329000E1F7F88BEF87CF01840F951F18161906F9
:1032A0000CF0B1C1A98DBA8D96968C91811104C094
:1032B000BFEABD1508F4D394A98DBA8DED91FC91A8
:1032C00011970284F385E02DCD011995B5E0DB9EC1
:1032D000C0011124E981FA81FC83EB83312C212C7C
:1032E0009C012C533C4F388F2F8B4A2D50E05E8B26
:1032F0004D8BEF89F88DE20DF31D44919E828D82F6
:10330000D12CC12C69817A81620D731D7A8B698BF6
:10331000842F90E09C8B8B8BE98DFA8DA081B181FD
:1033200040FF82C0F1E0BF126FC0AF126DC01C96AB
:10333000ED91FC912F813885A4014C0D5D1D6989AB
:103340007A89898D9A8D1995EB89FC89F595E79590
:103350004E2F5FEFC51AD50A6D817E818D899E89BA
:10336000680F791F7E836D8398E0C916D10481F6BA
:10337000AFEF2A1A3A0AEB81FC81E40DF51DFC83BC
:10338000EB83F5E02F16310409F0B3CF2F81388598
:1033900026153705B9F0A98DBA8DED91FC91B1E0F4
:1033A000BB1257C0AB1255C069817A816B5F7F4FEA
:1033B0000088F189E02D830128E030E0A401898DA7
:1033C0009A8D1995A98DBA8DED91FC91119706886A
:1033D000F789E02DCD016A960FB6F894DEBF0FBED7
:1033E000CDBFDF91CF911F910F91FF90EF90DF90B4
:1033F000CF90BF90AF909F908F907F906F905F9095
:103400004F903F902F9019941E96ED91FC91EF8074
:10341000F88409851A8592014D815E816B817C81DA
:10342000898D9A8D199590CF2F813885261537056E
:1034300009F48ACF31E0B31207C0A31205C01C966D
:10344000ED91FC91930178CF1E96ED91FC91730163
:10345000E0CF6B857C85641975090684F785E02DBE
:1034600073010F8518899201A401898D9A8D199590
:10347000A9CFF90134969491329745915491D91A74
:10348000B7E0DB9E400D511D1124F90125913491C7
:103490003C8B2B8BFA0125903490FA013296749074
:1034A00031963491398B329664903196449041E054
:1034B0004C1518F04A1508F07FC0662D062C000C3C
:1034C000770B7C836B83842D042C000C990B9E83DB
:1034D0008D83A98DBA8DED91FC9111970284F385AE
:1034E000E02DCD011995512CD12CC12CEA2DF0E005
:1034F000FA87E9872B2D30E03C872B87A401440D08
:10350000511D47FC5A95588F4F8B69817A81660D02
:10351000711D67FC7A957E876D877989C71608F0DB
:1035200051CF2C2D30E04D815E81420F531FA98574
:10353000BA854A9FC0014B9F900D5A9F900D112450
:10354000FC01E80DF91DF88BEF87852D612C4F8963
:10355000588D420F531F5E8B4D8B671408F050C07F
:1035600044244394480E877041F4C1010196EB89CD
:10357000FC89E20DF31DD4901C01D7FE19C0A98D62
:10358000BA8DED91FC91662D70E0B1E0BB1219C0CF
:10359000AB1217C02D853E85620F731F0484F5851D
:1035A000E02D2F8138854D895E89898D9A8D1995F9
:1035B000DD0C6394842DD1CF1E821D821C821B8260
:1035C00088CF4B815C81640F751FAB85BC856A9F7A
:1035D000C0016B9F900D7A9F900D112469817A81B3
:1035E000680F791F0684F785E02DEF80F884098540
:1035F0001A859D014F855889898D9A8D1995D8CF47
:10360000570CC3948ACF6A960FB6F894DEBF0FBEEC
:10361000CDBFDF91CF911F910F91FF90EF90DF9081
:10362000CF90BF90AF909F908F907F906F905F9062
:103630004F903F902F9008958F929F92AF92CF928C
:10364000EF92FF920F931F93CF93DF93EC01262FFE
:103650008FA198A5009709F050C06A30D1F41B8E55
:103660001A8E8BA148E0849F900111248C8D9D8D32
:10367000820F931F9D8F8C8F81E090E0DF91CF911F
:103680001F910F91FF90EF90CF90AF909F908F90F0
:1036900008956D3089F3CAA0ABA08DA18823C1F035
:1036A0008A8D9B8D36E0C39E800D911D11244E891D
:1036B0005F894817590764F44C8D5D8D1B8E1A8EF7
:1036C00038E0A39EC0011124840F951F9D8F8C8F1D
:1036D000E8A0F9A00E8D1F8D4C8D5D8D6A8D7B8DC0
:1036E000CE0185DD2AA18A8D9B8D46E0249F800D29
:1036F000911D11249B8F8A8FBFCF6A3069F41B8E76
:103700001A8EFC013896E4912BA18C8D9D8DE29F41
:10371000800D911D1124AECF6D3009F4ADCFFC01A9
:1037200034963491631708F4A7CF3296E491E617E4
:1037300008F4A2CFFC01329685909490462F431B4B
:10374000342F47E0349F800C911C1124F4013296F1
:1037500034913196E4913323A1F1EE2391F1CAA083
:10376000F4013596E491ABA04DA1442301F10E2E56
:10377000000CFF0BE30FF11DCE9EA001CF9E500D5C
:1037800011246A8D7B8D460F571F6E897F896417C0
:1037900075076CF44C8D5D8D1B8E1A8EFC0138966E
:1037A000E491AE9E400D511D11245D8F4C8FE8A019
:1037B000F9A00E8D1F8D4C8D5D8D6A8D7B8DCE0198
:1037C00016DDF4013496E4912AA18A8D9B8DE29F47
:1037D000800D911D11248ECF6F927F928F929F92B8
:1037E000AF92BF92CF92DF92EF92FF920F931F930F
:1037F000CF93DF93EC016B015A0139014801E88155
:10380000F9810284F385E02D1995E881F981028818
:10381000F389E02D87019301A501B601CE01199529
:10382000A501480D591D41505109E881F9810288CF
:10383000F389E02D9301B601CE011995E881F98154
:103840000088F189E02D9401A501B601CE011995FA
:10385000C60CD71CB60161507109E881F981008856
:10386000F189E02D9401A501CE011995E881F98136
:103870000688F789E02DCE01DF91CF911F910F913E
:10388000FF90EF90DF90CF90BF90AF909F908F9080
:103890007F906F9019946F927F928F929F92AF92C8
:1038A000BF92CF92DF92EF92FF920F931F93CF932D
:1038B000DF935C01EB016A01490138018701DC01FA
:1038C000ED91FC916217730719F5641675062CF0DB
:1038D000962D872D3A01C92ED82E96012619370923
:1038E0002F5F3F4F048CF58DE02DA301BE01C50174
:1038F0001995DF91CF911F910F91FF90EF90DF907D
:10390000CF90BF90AF909F908F907F906F900895D1
:103910004615570591F42617370724F0892D4B01DA
:10392000C22FD82F9E01281939092F5F3F4F068CCF
:10393000F78DE02DA601B401DACF0284F385E02DE6
:103940001995D501ED91FC910488F589E02D83014D
:103950009401A601BE01C5011995D501ED91FC9117
:103960000688F789E02DC501DF91CF911F910F9156
:10397000FF90EF90DF90CF90BF90AF909F908F908F
:103980007F906F901994EF92FF920F931F93DC0139
:1039900058960D911C91599756962D913C91579799
:1039A000ED91FC9100A0F1A1E02D7B0150E040E001
:1039B00070E060E019951F910F91FF90EF900895CE
:1039C0004F925F926F927F928F929F92AF92BF922F
:1039D000CF92DF92EF92FF920F931F93CF93DF93DB
:1039E0006C012B015A0139014801DC01ED91FC9178
:1039F0000284F385E02D1995E201640C751CD60153
:103A0000ED91FC91C615D7055CF40088F189E02D95
:103A100087019401A501BE01C60119952196EFCF3A
:103A20000688F789E02DC601DF91CF911F910F9194
:103A3000FF90EF90DF90CF90BF90AF909F908F90CE
:103A40007F906F905F904F9019948F929F92AF925A
:103A5000BF92CF92DF92EF92FF920F931F93CF937B
:103A6000DF93EC015B014A016901E881F98102847D
:103A7000F385E02D199595012C0D3D1D215031093F
:103A8000E881F9810488F589E02D78018401A40199
:103A9000B501CE011995E881F9810688F789E02DF5
:103AA000CE01DF91CF911F910F91FF90EF90DF90AA
:103AB000CF90BF90AF909F908F9019948F929F92CC
:103AC000AF92BF92CF92DF92EF92FF920F931F932C
:103AD000CF93DF93EC015B014A0169017801E88132
:103AE000F9810284F385E02D1995C80CD91C860153
:103AF00001501109E881F9810488F589E02D9501CB
:103B0000A401B501CE011995E881F9810688F789EC
:103B1000E02DCE01DF91CF911F910F91FF90EF909B
:103B2000DF90CF90BF90AF909F908F9019940895A1
:103B3000EF92FF920F931F93DC01ED91FC9100A097
:103B4000F1A1E02D19951F910F91FF90EF9008952D
:103B50000F931F93DC01ED91FC91068CF78DE02D06
:103B600019951F910F9108950F931F93DC01ED910B
:103B7000FC91048CF58DE02D19951F910F910895FE
:103B8000DC01ED91FC910084F185E02D19942F92D8
:103B90003F924F925F926F927F928F929F92AF92DD
:103BA000BF92CF92DF92EF92FF920F931F93CF932A
:103BB000DF9300D000D0CDB7DEB73C016A013E8371
:103BC0002D83FC82EB825801A41AB50AB7FE03C00C
:103BD000B194A194B1088D809E80861A970A97FEB1
:103BE00003C09194819491088A149B045CF0902FF7
:103BF000812F0D811E819D838E839C2D8D2D6B01C8
:103C0000692F782F0C151D055CF09D818E817E83B8
:103C10006D83692F782F902F812F8601C92ED82E82
:103C20001601201A310A2B012D813E81421A530AB6
:103C300057FE03C0519441945108710137FE03C0EF
:103C40003FEFE31AF30AF594E7948D819E8186177E
:103C500097075CF5A1E0B0E0BA83A983C016D1064E
:103C60004CF1D301ED91FC910484F585E02D2B817D
:103C70003C81A8016D817E818A149B041CF04D81DA
:103C80005E81B801C3011995E418F508F7FE0AC072
:103C90002D813E8189819A81280F391F3E832D8392
:103CA000E20CF31C0F5F1F4FD9CF2FEF3FEF3A838A
:103CB0002983D4CF26960FB6F894DEBF0FBECDBFB2
:103CC000DF91CF911F910F91FF90EF90DF90CF90F8
:103CD000BF90AF909F908F907F906F905F904F902C
:103CE0003F902F90089508958EBD00000DB407FEFB
:103CF000FDCF8EB50895EF92FF920F931F93CF9350
:103D0000DF9390916B249F3F39F4DF91CF911F9106
:103D10000F91FF90EF90E8CFD82FC0E007E010E0C0
:103D2000EE24E394F12CCC0F60E080916B240E9490
:103D3000960CB701002E01C0660F0A94EAF76D23B6
:103D4000809169240E94960C61E080916B240E940E
:103D5000960C80916A240E946E0C892B09F0C16038
:103D60000150110900F78C2FDF91CF911F910F9116
:103D7000FF90EF900895EF92FF920F931F93CF93D0
:103D8000DF938C01D62FE42E60E0DC018C910E9441
:103D9000960CFF24FA94FD0EF801C381CF0DC85094
:103DA0008D2FA2DF8E2DD93038F4D8011196ED91E8
:103DB000FC91EC0FF11D808197DFFC1680F361E030
:103DC000F8018081DF91CF911F910F91FF90EF90CB
:103DD0000C94960C0F931F93CF938C01C8E040E096
:103DE0006C2FC801C8DFC150D1F7CF911F910F913F
:103DF0000895CF92DF92EF92FF920F931F93CF938C
:103E0000DF93FC0124892F3F51F4862FDF91CF915E
:103E10001F910F91FF90EF90DF90CF9065CF062F0D
:103E2000EC0110E087E0E82EF12CCC24C394D12CD7
:103E3000110F60E08C890E94960CB6010E2C01C017
:103E4000660F0A94EAF760238A890E94960C61E063
:103E50008C890E94960C8B890E946E0C892B09F02C
:103E60001160F1E0EF1AF10818F7812FDF91CF917F
:103E70001F910F91FF90EF90DF90CF9008950895DC
:103E800008950895FC01DC01AB5BBF4F8C9187FD69
:103E900006C0A1A5B2A59C9187AD892B8C930895EE
:103EA0008CBD9DBD0895FC01ED5BFF4F208121116C
:103EB00004C0FC0187A590A9F3CF0895EF92FF926B
:103EC0000F931F93CF93DF931F92CDB7DEB78C0173
:103ED0006370DC0194966C939497623009F46FC020
:103EE000633009F471C0613009F45DC088E48983EE
:103EF00080EF90E057969C938E93569780E491E0E4
:103F000059969C938E935897C801CDDF7801F5E4BC
:103F1000EF0EF11CD7018C9187FD0BC0D80199964B
:103F2000ED91FC919A978081A05CBF4F9C91892371
:103F30008083D8019B96ED91FC919C978081AE5B2C
:103F4000BF4F9C918923808366E3C8010E94B5140A
:103F5000D8019B96ED91FC919C978081AF5BBF4F00
:103F60009C91892B8083F801ED5BFF4F808182302B
:103F700069F16981C8010E94B514D7018C9187FD50
:103F80000AC0D8019996ED91FC919A978081DF96AD
:103F90009C91892B80830F90DF91CF911F910F917E
:103FA000FF90EF90089588E2898380E491E0F80122
:103FB000978B868B80EF90E0918F808FA5CF88E8DC
:103FC000898380EF90E096CF88EEEECFF80186AD42
:103FD000882379F269817A81C8010E946F14CDCF5C
:103FE0006F927F928F929F92AF92BF92CF92DF9209
:103FF000EF92FF920F931F93CF93DF93EC01F62E76
:104000008A01622E50DF5E0185E4A80EB11CF50125
:10401000808187FD09C0E9A5FAA58081DE01A05C49
:10402000BF4F9C9189238083EBA5FCA58081DE0195
:10403000AE5BBF4F9C91892380836F2DCE010E9480
:10404000B514EBA5FCA58081DE01AF5BBF4F9C9151
:10405000892B8083D12CC12C712C4E01F3E48F0E5F
:10406000911CC614D704ECF4F401808178018230ED
:1040700079F48EAD882361F0F801619171917F012F
:10408000CE010E946F14FFEFCF1ADF0A8701E9CF3C
:10409000FFEFEF1AFF0AF8016491CE010E94B514F8
:1040A000F2CFF501808187FD06C0E9A5FAA58081E0
:1040B0009FAD892B8083DF91CF911F910F91FF904E
:1040C000EF90DF90CF90BF90AF909F908F907F90B8
:1040D0006F900895611105C060E220E050E040E07B
:1040E0007FCF61E2FACFCF93DF93EC01DCDEFE01FC
:1040F000EB5BFF4F808187FD08C0E9A5FAA58081B1
:10410000C05CDF4F988189238083DF91CF91089530
:10411000CF93CFB7F89480910C1F811127C0E2E4B0
:10412000FAE08491E2EEF9E09491E82FF0E0EE0FEE
:10413000FF1FED5CF64FA591B491EC91E92321F4BA
:1041400061E085E30E94960C61E085E30E94070D23
:104150008CB580618CBD8CB580648CBD61E084E3DE
:104160000E94070D61E083E30E94070D80910C1F00
:104170008F5F80930C1FCFBFCF9108952091E91ED0
:10418000260F3327331F21323105ECF420915323BE
:10419000FC0190E080E0243069F082E00895A09175
:1041A000E91E2191AC014753514EA40FB52FB11D0B
:1041B0002C930196861798F38091E91E680F6093FF
:1041C000E91E80E0089581E008951092532381E074
:1041D0008093322310922D2361E084E10E94960C9B
:1041E00061E085E10E94960CE9EBF0E080818E7F32
:1041F000808380818D7F808388E48093B80085E40C
:104200008093BC0008951092E8221092E722109249
:10421000EA2210920C23D9DF81EE99E09093641F7B
:104220008093631F82EE99E09093621F8093611FD9
:104230000895CF93DF9391E09093C81E8823B1F047
:10424000C091B800D091BA008091BC008A7B809365
:10425000BC0060E084E10E94960C60E085E10E9471
:10426000960CB3DFD093BA00C093B800DF91CF9122
:1042700008958F929F92AF92BF92CF92DF92EF926A
:10428000FF920F931F93CF93DF93D82FC62F142F36
:10429000613208F09BC00E94430D6B017C0180914C
:1042A000532381116FC081E08093532310933223F5
:1042B0009FEF90933123109230239C0F90932F23E4
:1042C00080932E2380912E23DD0FD82BD0932E2385
:1042D00080912D23813009F07BC010922D230E9404
:1042E000430D6B017C0180912E238093BB00809154
:1042F000552390915623A0915723B0915823892B91
:104300008A2B8B2BA1F00E94430D00915523109115
:10431000562320915723309158236C197D098E091B
:104320009F09061717072807390708F44CC0809122
:10433000BC0083FDD8CF85EC8093BC000E94430D68
:104340006B017C0180915323813009F443C080913B
:1043500030238C1710F4C0913023EDE0F3E2A3E397
:10436000B3E280E08C1358C08C2FDF91CF911F9166
:104370000F91FF90EF90DF90CF90BF90AF909F9004
:104380008F9008958091552390915623A0915723A3
:10439000B0915823892B8A2B8B2B09F480CF0E9454
:1043A000430D8090552390905623A0905723B090B2
:1043B00058236C197D098E099F0986169706A80651
:1043C000B90608F06CCF8091542333DFC0E0CCCF26
:1043D00085EEB2CF8091552390915623A09157231B
:1043E000B0915823892B8A2B8B2B09F4ABCF0E94D9
:1043F000430D00915523109156232091572330915E
:1044000058236C197D098E099F090617170728077D
:10441000390708F097CFD7CF91919D938F5FA2CFA7
:104420008F929F92AF92BF92CF92DF92EF92FF92C4
:104430000F931F93CF93DF93D0910C23D13208F0C9
:10444000D6C0182FC0910B230E94430D6B017C0135
:104450008091532381116BC082E08093532310938A
:1044600032238FEF8093312310923023D0932F2368
:10447000ABEEB2E2EDE0F3E280E0D81390C0109230
:104480002E2380912E23CC0FC82BC0932E238091F6
:104490002D23813009F087C010922D230E94430DF7
:1044A0006B017C0180912E238093BB00809155236A
:1044B00090915623A0915723B0915823892B8A2B92
:1044C0008B2BA1F00E94430D009155231091562390
:1044D00020915723309158236C197D098E099F092B
:1044E000061717072807390708F442C08091BC0057
:1044F00083FDD8CF85EC8093BC000E94430D6B01F7
:104500007C0180915323823009F44FC08091312384
:104510008F3F09F46EC080913123803209F46BC063
:1045200080913123803309F468C084E025C08091F4
:10453000552390915623A0915723B0915823892B4E
:104540008A2B8B2B09F484CF0E94430D8090552336
:1045500090905623A0905723B09058236C197D0952
:104560008E099F0986169706A806B90608F070CF2F
:10457000809154235EDE85E01092EA2210920C2393
:104580001092E922DF91CF911F910F91FF90EF9050
:10459000DF90CF90BF90AF909F908F9008959D91A6
:1045A00091938F5F6ACF85EEA6CF8091552390912E
:1045B0005623A0915723B0915823892B8A2B8B2BFC
:1045C00009F49FCF0E94430D00915523109156236B
:1045D00020915723309158236C197D098E099F092A
:1045E000061717072807390708F08BCFC1CF81E0DE
:1045F000C3CF80E0C1CF82E0BFCF83E0BDCFE091E9
:10460000E8228091E722E81730F4F0E0ED5CFC4D01
:10461000808190E008958FEF9FEF08959091E822B8
:104620008091E7222FEF3FEF981748F4E92FF0E051
:10463000ED5CFC4D208130E09F5F9093E822C90142
:1046400008958091E7229091E822891B990B0895A3
:10465000CF92DF92EF92FF920F931F93CF93DF934E
:104660007C01CB018A012091E922222389F0EB0110
:104670006B01C40ED51ECC15DD0561F06991D70123
:10468000ED91FC910190F081E02DC7011995F3CFD8
:10469000642F74DDC801DF91CF911F910F91FF90BE
:1046A000EF90DF90CF900895CF93DF931F92CDB717
:1046B000DEB769832091E9222223F9F020910C23AF
:1046C000203258F021E030E0FC013383228390E077
:1046D00080E00F90DF91CF9108958091EA22E82F3A
:1046E000F0E0E551FD4D998190838F5F8093EA2240
:1046F00080930C2381E090E0ECCF61E0CE01019645
:104700003DDDF8CF81E08CCECF93C82F87E70E94A4
:104710000D0964EF8FE295E2C7DF6C2F8FE295E21F
:10472000C3DF8FE295E2CF91EDCFCF93DF93D82F08
:10473000C62F809168248F3F19F580915F240E94D5
:104740000D098091552490915624DC01ED91FC9146
:104750000190F081E02D6D2F199580915524909155
:104760005624DC01ED91FC910190F081E02D6C2F3D
:1047700019958091552490915624DF91CF91C2CF05
:1047800080916B248F3F19F482E591E089DB60E032
:10479000809168240E94960C8D2F8F77ACDA8C2F35
:1047A000AADA61E080916824DF91CF910C94960C95
:1047B000CF93DF93C82FD62F809137248F3F19F5E1
:1047C00080912E240E940D09809126249091272407
:1047D000DC01ED91FC910190F081E02D6C2F199599
:1047E0008091262490912724DC01ED91FC91019089
:1047F000F081E02D6D2F199580912624909127242A
:10480000DF91CF917FCF80913A248F3F19F482E5D9
:1048100091E046DB60E0809137240E94960C6C2F7B
:104820006F7786E294E2E5DA6D2F86E294E2E1DAD0
:1048300061E080913724DF91CF910C94960CCF9357
:10484000DF93EC018B81882369F088810E940D0938
:1048500089819A8157DF91E0811190E0892FDF9162
:10486000CF910895D0DC81E08B83CE01E8DF982FD3
:104870008111EBCFF3CF90E080E008956093C41EE8
:104880007093C51E8093C61E9093C71E645D7E4FB5
:104890008F4F9F4F6093C01E7093C11E8093C21EA6
:1048A0009093C31E82E090E09093BF1E8093BE1E43
:1048B0000E94990D6093BA1E7093BB1E8093BC1E1C
:1048C0009093BD1E0895CF92DF92EF92FF920F93C7
:1048D0001F930E94990D8B019C01C090BA1ED0902D
:1048E000BB1EE090BC1EF090BD1E6091C41E709176
:1048F000C51E8091C61E9091C71E0C191D092E0958
:104900003F09083E134021053105E0F0DC01CB01F1
:104910000196A11DB11D8093C41E9093C51EA09346
:10492000C61EB093C71EB701A60148515C4F6F4F1A
:104930007F4F4093BA1E5093BB1E6093BC1E709372
:10494000BD1EC7CF1F910F91FF90EF90DF90CF90CA
:1049500008954F925F926F927F928F929F92AF9243
:10496000BF92CF92DF92EF92FF920F931F93CF935C
:10497000DF934B015C018091AF1E9091B01EA0911E
:10498000B11EB091B21E88159905AA05BB0509F4A0
:10499000C6C08CE3C82ED12CE12CF12CC501A70197
:1049A00096010E9416776093B31ECA01B901A70150
:1049B00096010E9416776093B41EC501B40120E1F0
:1049C0003EE040E050E00E941677CA01B90128E1BC
:1049D00030E040E050E00E9416776093B51EC501BC
:1049E000B40120E831E541E050E00E94167769010A
:1049F0007A01CA01B9016C5F7F4F8F4F9F4F27E04B
:104A000030E040E050E00E9416776F5F6093B61E82
:104A1000412C512C320140E004E610E0C0E9D1E025
:104A2000242F30E02E54384FF901E370FF273097E0
:104A3000F9F4C901B8010E940377892B31F4C90147
:104A4000BE010E940377892B99F48EE691E0A0E0E5
:104A5000B0E0480E591E6A1E7B1ED301C201AA2770
:104A6000BB27C816D906EA06FB0638F04F5FD8CF39
:104A70008DE691E0A0E0B0E0ECCF4093B91EC90113
:104A800064E670E00E940377EC01C90160E971E01F
:104A90000E940377309721F42097D9F40097C9F04A
:104AA0004DE651E060E070E0441A550A660A770A64
:104AB000C418D508E608F708AEE6B2E020E02130D9
:104AC00069F43097E9F5209711F40097C9F54DE1A5
:104AD00006C04EE651E060E070E0E6CF4C9150E059
:104AE00070E060E031E0320FC416D506E606F70646
:104AF00040F0C41AD50AE60AF70A1196232F3C3073
:104B0000F1F62F5F2093B81EC394C092B71E809217
:104B1000AF1E9092B01EA092B11EB092B21EDF9155
:104B2000CF911F910F91FF90EF90DF90CF90BF90AA
:104B3000AF909F908F907F906F905F904F9008956F
:104B40004CE1CDCFC0DE05DF8091B91E90E08E54E0
:104B5000984F0895B8DEFDDE8091B81E90E008956C
:104B6000B2DEF7DE8091B61E90E00895ACDEF1DE95
:104B70008091B71E90E00895A6DEEBDE8091B31E13
:104B800090E00895A0DEE5DE8091B41E90E00895E7
:104B90009ADEDFDE8091B51E90E00895FB0130972C
:104BA00071F090859078986090878083118212824E
:104BB0001382148215821682178281E0089580E0A4
:104BC00008950F931F938C01FB0180E0309769F0EB
:104BD0009085907898609087008311831282138269
:104BE000148215821682178281E01F910F91089519
:104BF000FB01309789F0908590789A609087982F84
:104C0000990F990B808391839283938394839583E7
:104C10009683978381E0089580E008950F931F9312
:104C2000CF93DF93EC01062F142F88E60E940D0925
:104C300088819981DC01ED91FC910190F081E02D5A
:104C4000602F199588819981DC01ED91FC9101908B
:104C5000F081E02D612F19958881998153DD8A8338
:104C6000DF91CF911F910F9108952F923F924F9214
:104C70005F926F927F928F929F92AF92BF92CF92EC
:104C8000DF92EF92FF920F931F93CF93DF936C010C
:104C9000E0908221F0908321C0918021D0918121E8
:104CA00001E010E0EC16FD0631F08701EC16FD0680
:104CB00010F00C1B1D0B2090842130908521A090BA
:104CC0007E21B0907F212A143B0409F464C02A1489
:104CD0003B0410F02A183B08BE0190E080E00E94DF
:104CE00052742B013C01CA18DB08B60190E080E049
:104CF0000E9452744B015C01B801110F880B990B93
:104D00000E9454749B01AC01C501B4010E94B374AC
:104D10004B015C01B101330C880B990B0E94547458
:104D20009B01AC01C501B4010E94E575A30192018C
:104D30000E9481754B015C01AC019B01C301B20172
:104D40000E94D07618169CF0B70190E080E00E9497
:104D500052749B01AC01C501B4010E94D076E701F9
:104D600018162CF0C501B4010E945276EB01CE0159
:104D7000DF91CF911F910F91FF90EF90DF90CF9037
:104D8000BF90AF909F908F907F906F905F904F906B
:104D90003F902F90089522242394312C9DCFDC0145
:104DA000ED91FC910190F081E02D19940F931F93E8
:104DB000CF93DF938C01DC0112968C910E940D0938
:104DC00070E060E08FE295E2EADFD0E0C0E0D80179
:104DD000ED91FC91EC0FFD1F60818FE295E264DCA8
:104DE000D801ED91FC91EC0FFD1F61818FE295E2FE
:104DF0005BDC2296C031D10551F78FE295E2DF915D
:104E0000CF911F910F917ECCCF93C62FFC01828151
:104E10000E940D09CF70C06E6C2F70E08FE295E29A
:104E2000BEDF8FE295E2CF916DCC0F931F93CF93AE
:104E30008C01C62FFC0182890E940D09F801618D49
:104E4000C62B6C2F70E08FE295E2A9DF8FE295E22E
:104E5000CF911F910F9156CCFC012185222331F077
:104E6000FCE02F02800D911D1124089590E080E058
:104E70000895AF92BF92CF92DF92FF921F93CF938C
:104E8000DF93F62EDC0114962D913C912417350703
:104E900030F1642F413208F060E26A01172F5C01A3
:104EA00041E0FC018081E5D91092E8228093E7225D
:104EB0008C151D04A1F4CF2DD12FCC0EDD1ECC16E8
:104EC000DD06B9F0D50111968D919C91DC01ED9133
:104ED000FC910284F385E02D19958993F0CF80E051
:104EE000DF91CF911F91FF90DF90CF90BF90AF9057
:104EF000089581E0F5CF41E0BCD91092E82280937B
:104F0000E7220895CF93DF9362E070E080912A2535
:104F100090912B25F0DF8FE295E280DBD82F80E0A7
:104F2000C82F8FE295E27ADB8C2B9D2BBC0190E0A1
:104F300080E00E9452742AE939E949E95FE30E945E
:104F4000E5750E945276CB01DF91CF910895CF9203
:104F5000DF92EF92FF920F931F93CF93DF9300D0D6
:104F600000D01F921F92CDB7DEB719821A821B8222
:104F70001C821D821E821F8218868CE50E940D09EC
:104F80008FE295E2BFDB8CE50E940D0963E070E0E3
:104F90008FE295E204DF70E060E08FE295E2FFDEF1
:104FA00064E070E08FE295E2FADE8FE295E2AADB40
:104FB00081118AC08BEF98E10197F1F768E070E00A
:104FC0008CE590E098DF8E010F5F1F4F6E0169E066
:104FD000C60ED11C78018FE295E220DBF7018193A8
:104FE0007F01CE16DF06B9F7888590E0982F8827D5
:104FF0002F81280F392F311D47E08FEF9FEF415050
:1050000099F0F80151918F01852758E0BC0161703A
:10501000772796958795672B21F0F1E08F27F0EAA7
:105020009F27515099F7EBCF2817390709F04FC048
:105030001D81612F70E0762F6627CB0188279F772F
:105040006E81680F792F711D90E080E00E9452748C
:1050500020E030E040E251E40E94E57517FD9058F1
:1050600060930D2470930E2480930F24909310244A
:105070006B81862F90E0982F88276C81680F792F9D
:10508000711D90E080E00E94527420E030E040E228
:1050900051E40E94E575609311247093122480936B
:1050A00013249093142490E080E028960FB6F8948F
:1050B000DEBF0FBECDBFDF91CF911F910F91FF904B
:1050C000EF90DF90CF90089581E090E0EECF82E006
:1050D00090E0EBCF68E572E080E090E00E94680D20
:1050E00036DF892B49F4609111247091122480914C
:1050F000132490911424089560E070E080E89FEB01
:10510000089568E572E080E090E00E94680D1FDF7E
:10511000892B49F460910D2470910E2480910F2405
:1051200090911024089560E070E086EC92E4089578
:105130006AD88CE50E940D098FE295E2E3DA61E01E
:1051400070E08CE590E0D7DE68E572E080E090E00A
:105150000E94680D81E00895CF92DF92FF920F9335
:105160001F93CF93DF93DC011496ED91FC91E4172C
:10517000F50710F490E01DC0F22EEA016B018C01DE
:10518000FC0180810E940D09D80111968D919C919E
:10519000DC01ED91FC910280F381E02DAE01B601BE
:1051A0001995C817D90731F78F2D3AD991E0811198
:1051B000E1CF892FDF91CF911F910F91FF90DF9069
:1051C000CF900895CF93DF9300D01F92CDB7DEB775
:1051D00085EE8C8321E041E050E0BE016C5F7F4FA3
:1051E0008091152490911624B7DF8823D9F162E3CA
:1051F00070E080E090E00E94680D43E050E0BE0166
:105200006F5F7F4F809115249091162432DE8823A2
:1052100049F189816A816C7F782F90E080E00E945B
:10522000527420E030E04AEF52E40E94B37420E070
:1052300030E040E857E30E94B37420E030E040ECF7
:1052400050E40E9480756093172470931824809313
:10525000192490931A240F900F900F900F90DF91C4
:10526000CF91089560E070E080EC9FE7F4CFCF939A
:10527000DF9300D01F92CDB7DEB783EE8C8321E0A1
:1052800041E050E0BE016C5F7F4F8091152490910A
:10529000162462DF8823D9F162E370E080E090E0B9
:1052A0000E94680D43E050E0BE016F5F7F4F809128
:1052B000152490911624DDDD882349F189816A81C6
:1052C0006C7F782F90E080E00E94527422E538EBEA
:1052D0004FE253E40E94B37420E030E040E857E32B
:1052E0000E94B37426E636E64BE352E40E948075D2
:1052F00060931B2470931C2480931D2490931E2480
:105300000F900F900F900F90DF91CF91089560E074
:1053100070E080EC9FE7F4CF2F923F924F925F9224
:105320006F927F928F929F92AF92BF92CF92DF92B5
:10533000EF92FF920F931F93CF93DF9300D000D093
:105340001F921F92CDB7DEB78C013090062460E02B
:10535000832D0E94960C61E0832D0E94070DF09032
:10536000042460E08F2D0E94960C61E08F2D0E9436
:10537000070D2090052461E0822D0E94070D61E059
:10538000832D0E94960C8BE090E00197F1F7D12CD1
:10539000C12C9FEBA92EB12CB5010C2C02C0759528
:1053A00067950A94E2F76170822D0E94960C61E085
:1053B0008F2D0E94960C60E08F2D0E94960C8FEF2F
:1053C000C81AD80A98E0C916D10431F7FE013196FF
:1053D0005F014E01F9E08F0E911C412C512C3201DE
:1053E000439460E0822D0E94070DD12CC12CE12C4A
:1053F000822D0E946E0CB301A2010C2C04C0440F3C
:10540000551F661F771F0A94D2F7892B09F487C0AE
:10541000E42A61E08F2D0E94960C60E08F2D0E949F
:10542000960C8FEFC81AD80A98E0C916D10401F774
:10543000F501E1925F018E169F0699F660E0832DDB
:105440000E94960C8BE090E00197F1F75981852F2F
:10545000829587707AE05F70879F500D1124F80164
:1054600050834A81842F829587704F70879F400DAB
:10547000112441833B81832F829583703F70879FE6
:10548000300D112432832C81822F829583702F70EE
:10549000879F200D112424838D8184FB992790F907
:1054A0008F70979F800D112485836E816770638351
:1054B0009F81E92FE295EF709F70925EE79F900DBC
:1054C0001124F80196835C3368F54C3358F5383174
:1054D00048F521502F3130F581508C3018F561504E
:1054E00081E0673018F4943608F480E028960FB60F
:1054F000F894DEBF0FBECDBFDF91CF911F910F910A
:10550000FF90EF90DF90CF90BF90AF909F908F90E3
:105510007F906F905F904F903F902F9008954095AF
:10552000E42277CF81E0E2CF0F931F93CF938C01DA
:10553000C62F64607ADC6C2F6B7FC80176DC83EC4D
:1055400090E00197F1F7CF911F910F910895FF928D
:105550000F931F93CF93DF938C01D62FC42F862FE9
:10556000807FF82EF42A6F2DC8015FDC6F2DC801F3
:10557000DBDF80E1D89FB0011124C62B6C2FC8015E
:1055800054DC6C2FC801DF91CF911F910F91FF90D8
:10559000CBCFCF93DF9300D000D01F921F92CDB717
:1055A000DEB728E0E6E2F2E0DE01119601900D920E
:1055B0002A95E1F7FC012689241708F44FEF50E003
:1055C000440F551F21E030E02C0F3D1F420F531FA9
:1055D000FA012081620F606840E028960FB6F894C7
:1055E000DEBF0FBECDBFDF91CF91B1CF862F642F2D
:1055F00041E00E9439211092E8228093E722089529
:105600008F929F92AF92BF92CF92DF92EF92FF92D2
:10561000F82E809168248F3F09F067C080915F2445
:105620000E940D098091552490915624DC01ED9142
:10563000FC910190F081E02D6F2D199580915524FA
:10564000909156245FD843E060915F248091552467
:1056500090915624CBDF8091552490915624DC0103
:10566000ED91FC910284F385E02D19954C01990F81
:10567000AA08BB08BA2CA92C982C88248091552400
:1056800090915624DC01ED91FC910284F385E02D8C
:105690001995092E000CAA0BBB0B882A992AAA2A55
:1056A000BB2ABA2CA92C982C88248091552490913F
:1056B0005624DC01ED91FC910284F385E02D1995CF
:1056C000092E000CAA0BBB0B6C017D01C828D92840
:1056D000EA28FB28C701B601FF90EF90DF90CF903A
:1056E000BF90AF909F908F90089580916B248F3FD3
:1056F00021F482E591E00E94501F60E080916824CF
:105700000E94960C8F2D0E947B1E80E00E947B1EC3
:1057100090E0B0E0A0E0CC24D82EE92EFA2E80E074
:105720000E947B1EC82AFE2CED2CDC2CCC2480E0B1
:105730000E947B1EC82A61E0809168240E94960C1A
:10574000C9CF8F929F92AF92BF92CF92DF92EF928A
:10575000FF928AEF55DF6115710520E882079105F8
:1057600009F485C08090702490907124B12CA12CF4
:10577000C72ED82EE92EFF24E7FCFA94C818D908C2
:10578000EA08FB0837E095958795779567953A95F0
:10579000D1F7880C991CAA1CBB1C9B01AC012819D1
:1057A00039094A095B09A0917224B09173240E94BF
:1057B00068774B015C015BE0B594A794979487945C
:1057C0005A95D1F7A7019601C701B6010E94D47678
:1057D0009B01AC016CE055954795379527956A95E7
:1057E000D1F7A0917424B09175240E9468779B0131
:1057F000AC017EE055954795379527957A95D1F779
:10580000280D391D4A1D5B1D80916C2490916D24DB
:10581000A0916E24B0916F24280F391F4A1F5B1F7F
:105820002093642430936524409366245093672426
:10583000A5E0B0E00E94677560587F4F8F4F9F4F83
:10584000672F782F892F992787FD9A950E94547486
:1058500020E030E048EC52E40E94E575FF90EF90C4
:10586000DF90CF90BF90AF909F908F90089560E0B1
:1058700070E080EC9FE7F2CFCF93DF93C82F809149
:1058800068248F3F09F03EC080915F240E940D097B
:105890008091552490915624DC01ED91FC9101906A
:1058A000F081E02D6C2F199580915524909156240C
:1058B0000E94822342E060915F2480915524909160
:1058C000562494DE8091552490915624DC01ED916C
:1058D000FC910284F385E02D1995C82F8091552401
:1058E00090915624DC01ED91FC910284F385E02D2A
:1058F000199520E03C2FE901C82BD92BCE01DF916F
:10590000CF91089580916B248F3F21F482E591E03F
:105910000E94501F60E0809168240E94960C8C2F9A
:105920000E947B1E80E00E947B1EC82F80E00E94A8
:105930007B1EDC2FC82F61E0809168240E94960CAA
:10594000DDCF4F925F926F927F928F929F92AF9234
:10595000BF92CF92DF92EF92FF92F3DE8DEF8CDF5A
:10596000B0E0A0E0811520E89207A105B10509F497
:10597000D7C08090642490906524A0906624B09055
:1059800067242CE2921A21E0A20AB1086C017D0181
:105990003EE0CC0CDD1CEE1CFF1C3A95D1F780914B
:1059A0008C2490918D24092E000CAA0BBB0B44E192
:1059B000880F991FAA1FBB1F4A95D1F7C81AD90A89
:1059C000EA0AFB0AA0918E24B0918F24A5019401CC
:1059D0000E946877C61AD70AE80AF90A80E4D80E46
:1059E000E11CF11C6FE0F594E794D794C7946A9595
:1059F000D1F7A0918B24B0E00E9467752B013C0188
:105A00007BE075946794579447947A95D1F720E892
:105A1000520E611C711CA09190240A2E000CBB0B2D
:105A200094010E946877EAE0959587957795679548
:105A3000EA95D1F7A30192010E94D4769B01AC01B3
:105A4000FAE05595479537952795FA95D1F7405E39
:105A50005F4FA0918924B0918A240E946877705E7C
:105A60008F4F9F4FAEE09595879577956795AA954F
:105A7000D1F7A70196010E94D4766B017C01BFE0AB
:105A80009595879577956795BA95D1F79B01AC0168
:105A90000E94D4769B01AC0187E0559547953795D8
:105AA00027958A95D1F7A0918824B0E00E94677568
:105AB00024E095958795779567952A95D1F7C61A2D
:105AC000D70AE80AF90AF7FE03C0C12CD12C7601E7
:105AD000C701B60161307105810529E1920724F003
